{
  "abi": [
    {
      "anonymous": false,
      "inputs": [
        {
          "indexed": true,
          "internalType": "address",
          "name": "owner",
          "type": "address"
        },
        {
          "indexed": true,
          "internalType": "address",
          "name": "approved",
          "type": "address"
        },
        {
          "indexed": true,
          "internalType": "uint256",
          "name": "tokenId",
          "type": "uint256"
        }
      ],
      "name": "Approval",
      "type": "event"
    },
    {
      "anonymous": false,
      "inputs": [
        {
          "indexed": true,
          "internalType": "address",
          "name": "owner",
          "type": "address"
        },
        {
          "indexed": true,
          "internalType": "address",
          "name": "operator",
          "type": "address"
        },
        {
          "indexed": false,
          "internalType": "bool",
          "name": "approved",
          "type": "bool"
        }
      ],
      "name": "ApprovalForAll",
      "type": "event"
    },
    {
      "anonymous": false,
      "inputs": [
        {
          "indexed": true,
          "internalType": "address",
          "name": "from",
          "type": "address"
        },
        {
          "indexed": true,
          "internalType": "address",
          "name": "to",
          "type": "address"
        },
        {
          "indexed": true,
          "internalType": "uint256",
          "name": "tokenId",
          "type": "uint256"
        }
      ],
      "name": "Transfer",
      "type": "event"
    },
    {
      "inputs": [
        {
          "internalType": "address",
          "name": "to",
          "type": "address"
        },
        {
          "internalType": "uint256",
          "name": "tokenId",
          "type": "uint256"
        }
      ],
      "name": "approve",
      "outputs": [],
      "stateMutability": "nonpayable",
      "type": "function"
    },
    {
      "inputs": [
        {
          "internalType": "address",
          "name": "owner",
          "type": "address"
        }
      ],
      "name": "balanceOf",
      "outputs": [
        {
          "internalType": "uint256",
          "name": "",
          "type": "uint256"
        }
      ],
      "stateMutability": "view",
      "type": "function"
    },
    {
      "inputs": [
        {
          "internalType": "uint256",
          "name": "tokenId",
          "type": "uint256"
        }
      ],
      "name": "burn",
      "outputs": [],
      "stateMutability": "nonpayable",
      "type": "function"
    },
    {
      "inputs": [
        {
          "internalType": "uint256",
          "name": "tokenId",
          "type": "uint256"
        }
      ],
      "name": "getApproved",
      "outputs": [
        {
          "internalType": "address",
          "name": "",
          "type": "address"
        }
      ],
      "stateMutability": "view",
      "type": "function"
    },
    {
      "inputs": [
        {
          "internalType": "address",
          "name": "owner",
          "type": "address"
        },
        {
          "internalType": "address",
          "name": "operator",
          "type": "address"
        }
      ],
      "name": "isApprovedForAll",
      "outputs": [
        {
          "internalType": "bool",
          "name": "",
          "type": "bool"
        }
      ],
      "stateMutability": "view",
      "type": "function"
    },
    {
      "inputs": [
        {
          "internalType": "address",
          "name": "to",
          "type": "address"
        },
        {
          "internalType": "uint256",
          "name": "tokenId",
          "type": "uint256"
        }
      ],
      "name": "mint",
      "outputs": [],
      "stateMutability": "nonpayable",
      "type": "function"
    },
    {
      "inputs": [
        {
          "internalType": "uint256",
          "name": "tokenId",
          "type": "uint256"
        }
      ],
      "name": "ownerOf",
      "outputs": [
        {
          "internalType": "address",
          "name": "owner",
          "type": "address"
        }
      ],
      "stateMutability": "view",
      "type": "function"
    },
    {
      "inputs": [
        {
          "internalType": "address",
          "name": "from",
          "type": "address"
        },
        {
          "internalType": "address",
          "name": "to",
          "type": "address"
        },
        {
          "internalType": "uint256",
          "name": "tokenId",
          "type": "uint256"
        }
      ],
      "name": "safeTransferFrom",
      "outputs": [],
      "stateMutability": "nonpayable",
      "type": "function"
    },
    {
      "inputs": [
        {
          "internalType": "address",
          "name": "from",
          "type": "address"
        },
        {
          "internalType": "address",
          "name": "to",
          "type": "address"
        },
        {
          "internalType": "uint256",
          "name": "tokenId",
          "type": "uint256"
        },
        {
          "internalType": "bytes",
          "name": "_data",
          "type": "bytes"
        }
      ],
      "name": "safeTransferFrom",
      "outputs": [],
      "stateMutability": "nonpayable",
      "type": "function"
    },
    {
      "inputs": [
        {
          "internalType": "address",
          "name": "operator",
          "type": "address"
        },
        {
          "internalType": "bool",
          "name": "approved",
          "type": "bool"
        }
      ],
      "name": "setApprovalForAll",
      "outputs": [],
      "stateMutability": "nonpayable",
      "type": "function"
    },
    {
      "inputs": [
        {
          "internalType": "bytes4",
          "name": "interfaceId",
          "type": "bytes4"
        }
      ],
      "name": "supportsInterface",
      "outputs": [
        {
          "internalType": "bool",
          "name": "",
          "type": "bool"
        }
      ],
      "stateMutability": "pure",
      "type": "function"
    },
    {
      "inputs": [
        {
          "internalType": "address",
          "name": "from",
          "type": "address"
        },
        {
          "internalType": "address",
          "name": "to",
          "type": "address"
        },
        {
          "internalType": "uint256",
          "name": "tokenId",
          "type": "uint256"
        }
      ],
      "name": "transferFrom",
      "outputs": [],
      "stateMutability": "nonpayable",
      "type": "function"
    }
  ],
  "bytecode": {
    "object": "0x608060405234801561001057600080fd5b50610e42806100206000396000f3fe608060405234801561001057600080fd5b50600436106100b45760003560e01c806342966c681161007157806342966c681461015a5780636352211e1461016d57806370a0823114610180578063a22cb465146101a1578063b88d4fde146101b4578063e985e9c5146101c757600080fd5b806301ffc9a7146100b9578063081812fc146100e1578063095ea7b31461010c57806323b872dd1461012157806340c10f191461013457806342842e0e14610147575b600080fd5b6100cc6100c7366004610afc565b610203565b60405190151581526020015b60405180910390f35b6100f46100ef366004610b20565b61023a565b6040516001600160a01b0390911681526020016100d8565b61011f61011a366004610b50565b6102b5565b005b61011f61012f366004610b7a565b61035a565b61011f610142366004610b50565b6103c9565b61011f610155366004610b7a565b6104fb565b61011f610168366004610b20565b610516565b6100f461017b366004610b20565b610601565b61019361018e366004610bb6565b610661565b6040519081526020016100d8565b61011f6101af366004610bd1565b6106cc565b61011f6101c2366004610c23565b610738565b6100cc6101d5366004610cff565b6001600160a01b03918216600090815260036020908152604080832093909416825291909152205460ff1690565b60006001600160e01b031982166380ac58cd60e01b148061023457506001600160e01b031982166301ffc9a760e01b145b92915050565b6000818152602081905260408120546001600160a01b03166102995760405162461bcd60e51b81526020600482015260136024820152721d1bdad95b88191bd95cdb89dd08195e1a5cdd606a1b60448201526064015b60405180910390fd5b506000908152600260205260409020546001600160a01b031690565b6000818152602081905260409020546001600160a01b0316338114806102fe57506001600160a01b038116600090815260036020908152604080832033845290915290205460ff165b61034a5760405162461bcd60e51b815260206004820152601e60248201527f6e6f74206f776e6572206e6f7220617070726f76656420666f7220616c6c00006044820152606401610290565b6103558184846107a9565b505050565b600061036582610601565b9050610372813384610805565b6103b75760405162461bcd60e51b81526020600482015260166024820152751b9bdd081bdddb995c881b9bdc88185c1c1c9bdd995960521b6044820152606401610290565b6103c381858585610878565b50505050565b6001600160a01b0382166104165760405162461bcd60e51b81526020600482015260146024820152736d696e7420746f207a65726f206164647265737360601b6044820152606401610290565b6000818152602081905260409020546001600160a01b0316156104725760405162461bcd60e51b81526020600482015260146024820152731d1bdad95b88185b1c9958591e481b5a5b9d195960621b6044820152606401610290565b6001600160a01b0382166000908152600160208190526040822080549192909161049d908490610d48565b909155505060008181526020819052604080822080546001600160a01b0319166001600160a01b03861690811790915590518392907fddf252ad1be2c89b69c2b068fc378daa952ba7f163c4a11628f55a4df523b3ef908290a45050565b61035583838360405180602001604052806000815250610738565b600061052182610601565b9050336001600160a01b038216146105705760405162461bcd60e51b81526020600482015260126024820152713737ba1037bbb732b91037b3103a37b5b2b760711b6044820152606401610290565b61057c816000846107a9565b6001600160a01b038116600090815260016020819052604082208054919290916105a7908490610d60565b909155505060008281526020819052604080822080546001600160a01b0319169055518391906001600160a01b038416907fddf252ad1be2c89b69c2b068fc378daa952ba7f163c4a11628f55a4df523b3ef908390a45050565b6000818152602081905260409020546001600160a01b03168061065c5760405162461bcd60e51b81526020600482015260136024820152721d1bdad95b88191bd95cdb89dd08195e1a5cdd606a1b6044820152606401610290565b919050565b60006001600160a01b0382166106b05760405162461bcd60e51b81526020600482015260146024820152736f776e6572203d207a65726f206164647265737360601b6044820152606401610290565b506001600160a01b031660009081526001602052604090205490565b3360008181526003602090815260408083206001600160a01b03871680855290835292819020805460ff191686151590811790915590519081529192917f17307eab39ab6107e8899845ad3d59bd9653f200f220920489ca2b5937696c31910160405180910390a35050565b600061074383610601565b9050610750813385610805565b6107955760405162461bcd60e51b81526020600482015260166024820152751b9bdd081bdddb995c881b9bdc88185c1c1c9bdd995960521b6044820152606401610290565b6107a281868686866109e4565b5050505050565b60008181526002602052604080822080546001600160a01b0319166001600160a01b0386811691821790925591518493918716917f8c5be1e5ebec7d5bd14f71427d1e84f3dd0314c0f7b2291e5b200ac8c7c3b92591a4505050565b6000836001600160a01b0316836001600160a01b0316148061084057506000828152600260205260409020546001600160a01b038481169116145b8061087057506001600160a01b0380851660009081526003602090815260408083209387168352929052205460ff165b949350505050565b836001600160a01b0316836001600160a01b0316146108c55760405162461bcd60e51b81526020600482015260096024820152683737ba1037bbb732b960b91b6044820152606401610290565b6001600160a01b03821661091b5760405162461bcd60e51b815260206004820152601c60248201527f7472616e7366657220746f20746865207a65726f2061646472657373000000006044820152606401610290565b610927846000836107a9565b6001600160a01b03831660009081526001602081905260408220805491929091610952908490610d60565b90915550506001600160a01b03821660009081526001602081905260408220805491929091610982908490610d48565b909155505060008181526020819052604080822080546001600160a01b0319166001600160a01b0386811691821790925591518493918716917fddf252ad1be2c89b69c2b068fc378daa952ba7f163c4a11628f55a4df523b3ef91a450505050565b6109f085858585610878565b6109fc84848484610a3d565b6107a25760405162461bcd60e51b81526020600482015260126024820152713737ba1022a9219b9918a932b1b2b4bb32b960711b6044820152606401610290565b60006001600160a01b0384163b15610ad857604051630a85bd0160e11b808252906001600160a01b0386169063150b7a0290610a839033908a9089908990600401610d77565b6020604051808303816000875af1158015610aa2573d6000803e3d6000fd5b505050506040513d601f19601f82011682018060405250810190610ac69190610def565b6001600160e01b031916149050610870565b506001949350505050565b6001600160e01b031981168114610af957600080fd5b50565b600060208284031215610b0e57600080fd5b8135610b1981610ae3565b9392505050565b600060208284031215610b3257600080fd5b5035919050565b80356001600160a01b038116811461065c57600080fd5b60008060408385031215610b6357600080fd5b610b6c83610b39565b946020939093013593505050565b600080600060608486031215610b8f57600080fd5b610b9884610b39565b9250610ba660208501610b39565b9150604084013590509250925092565b600060208284031215610bc857600080fd5b610b1982610b39565b60008060408385031215610be457600080fd5b610bed83610b39565b915060208301358015158114610c0257600080fd5b809150509250929050565b634e487b7160e01b600052604160045260246000fd5b60008060008060808587031215610c3957600080fd5b610c4285610b39565b9350610c5060208601610b39565b925060408501359150606085013567ffffffffffffffff80821115610c7457600080fd5b818701915087601f830112610c8857600080fd5b813581811115610c9a57610c9a610c0d565b604051601f8201601f19908116603f01168101908382118183101715610cc257610cc2610c0d565b816040528281528a6020848701011115610cdb57600080fd5b82602086016020830137600060208483010152809550505050505092959194509250565b60008060408385031215610d1257600080fd5b610d1b83610b39565b9150610d2960208401610b39565b90509250929050565b634e487b7160e01b600052601160045260246000fd5b60008219821115610d5b57610d5b610d32565b500190565b600082821015610d7257610d72610d32565b500390565b600060018060a01b038087168352602081871681850152856040850152608060608501528451915081608085015260005b82811015610dc45785810182015185820160a001528101610da8565b82811115610dd657600060a084870101525b5050601f01601f19169190910160a00195945050505050565b600060208284031215610e0157600080fd5b8151610b1981610ae356fea2646970667358221220a191bb7a549ae18e1d1b228c976203d6a11d49d31eac668d041fb37b14eff37a64736f6c634300080f0033",
    "linkReferences": {}
  },
  "methodIdentifiers": {
    "approve(address,uint256)": "095ea7b3",
    "balanceOf(address)": "70a08231",
    "burn(uint256)": "42966c68",
    "getApproved(uint256)": "081812fc",
    "isApprovedForAll(address,address)": "e985e9c5",
    "mint(address,uint256)": "40c10f19",
    "ownerOf(uint256)": "6352211e",
    "safeTransferFrom(address,address,uint256)": "42842e0e",
    "safeTransferFrom(address,address,uint256,bytes)": "b88d4fde",
    "setApprovalForAll(address,bool)": "a22cb465",
    "supportsInterface(bytes4)": "01ffc9a7",
    "transferFrom(address,address,uint256)": "23b872dd"
  },
  "id": 7
}